{
  "_format": "hh-sol-artifact-1",
  "contractName": "SocialMedia",
  "sourceName": "contracts/SocialMedia.sol",
  "abi": [
    {
      "inputs": [
        {
          "internalType": "string",
          "name": "newNickName",
          "type": "string"
        }
      ],
      "name": "changeNickName",
      "outputs": [],
      "stateMutability": "nonpayable",
      "type": "function"
    },
    {
      "inputs": [
        {
          "internalType": "address",
          "name": "userAddress",
          "type": "address"
        }
      ],
      "name": "getNickName",
      "outputs": [
        {
          "internalType": "string",
          "name": "",
          "type": "string"
        }
      ],
      "stateMutability": "view",
      "type": "function"
    },
    {
      "inputs": [
        {
          "internalType": "string",
          "name": "name",
          "type": "string"
        }
      ],
      "name": "getUserByName",
      "outputs": [
        {
          "internalType": "contract User",
          "name": "",
          "type": "address"
        }
      ],
      "stateMutability": "view",
      "type": "function"
    },
    {
      "inputs": [
        {
          "internalType": "address",
          "name": "userAddress",
          "type": "address"
        }
      ],
      "name": "getUserPosts",
      "outputs": [
        {
          "internalType": "contract Post[]",
          "name": "",
          "type": "address[]"
        }
      ],
      "stateMutability": "view",
      "type": "function"
    },
    {
      "inputs": [],
      "name": "numPosts",
      "outputs": [
        {
          "internalType": "uint256",
          "name": "",
          "type": "uint256"
        }
      ],
      "stateMutability": "view",
      "type": "function"
    },
    {
      "inputs": [
        {
          "internalType": "uint256",
          "name": "",
          "type": "uint256"
        }
      ],
      "name": "posts",
      "outputs": [
        {
          "internalType": "contract Post",
          "name": "",
          "type": "address"
        }
      ],
      "stateMutability": "view",
      "type": "function"
    },
    {
      "inputs": [
        {
          "internalType": "address",
          "name": "",
          "type": "address"
        }
      ],
      "name": "userPostCount",
      "outputs": [
        {
          "internalType": "uint256",
          "name": "",
          "type": "uint256"
        }
      ],
      "stateMutability": "view",
      "type": "function"
    },
    {
      "inputs": [
        {
          "internalType": "address",
          "name": "",
          "type": "address"
        },
        {
          "internalType": "uint256",
          "name": "",
          "type": "uint256"
        }
      ],
      "name": "userPosts",
      "outputs": [
        {
          "internalType": "contract Post",
          "name": "",
          "type": "address"
        }
      ],
      "stateMutability": "view",
      "type": "function"
    },
    {
      "inputs": [
        {
          "internalType": "address",
          "name": "",
          "type": "address"
        }
      ],
      "name": "users",
      "outputs": [
        {
          "internalType": "contract User",
          "name": "",
          "type": "address"
        }
      ],
      "stateMutability": "view",
      "type": "function"
    },
    {
      "inputs": [
        {
          "internalType": "string",
          "name": "",
          "type": "string"
        }
      ],
      "name": "usersByName",
      "outputs": [
        {
          "internalType": "contract User",
          "name": "",
          "type": "address"
        }
      ],
      "stateMutability": "view",
      "type": "function"
    }
  ],
  "bytecode": "0x60806040526000805534801561001457600080fd5b50611ed3806100246000396000f3fe60806040523480156200001157600080fd5b5060043610620000ac5760003560e01c8063a87430ba116200006f578063a87430ba14620001bf578063c1d9893114620001f5578063c6cb39ed146200022b578063ead0327d146200024b578063ec7331e9146200028157620000ac565b80630b1e7f8314620000b15780634bff500914620000e757806360cd13ea146200011d5780638064d14914620001535780639a2194a91462000189575b600080fd5b620000cf6004803603810190620000c9919062000bc3565b620002a3565b604051620000de919062000c80565b60405180910390f35b620001056004803603810190620000ff919062000dff565b620002d6565b60405162000114919062000e75565b60405180910390f35b6200013b600480360381019062000135919062000ed7565b62000320565b6040516200014a919062000f1a565b60405180910390f35b6200017160048036038101906200016b919062000f37565b62000338565b60405162000180919062000c80565b60405180910390f35b620001a76004803603810190620001a1919062000ed7565b6200037a565b604051620001b691906200104c565b60405180910390f35b620001dd6004803603810190620001d7919062000ed7565b620004ff565b604051620001ec919062000e75565b60405180910390f35b6200021360048036038101906200020d919062000dff565b62000532565b60405162000222919062000e75565b60405180910390f35b62000249600480360381019062000243919062000dff565b6200057b565b005b62000269600480360381019062000263919062000ed7565b62000a71565b60405162000278919062001103565b60405180910390f35b6200028b62000b60565b6040516200029a919062000f1a565b60405180910390f35b60016020528060005260406000206000915054906101000a900473ffffffffffffffffffffffffffffffffffffffff1681565b6000600382604051620002ea919062001169565b908152602001604051809103902060009054906101000a900473ffffffffffffffffffffffffffffffffffffffff169050919050565b60056020528060005260406000206000915090505481565b60046020528160005260406000206020528060005260406000206000915091509054906101000a900473ffffffffffffffffffffffffffffffffffffffff1681565b60606000600560008473ffffffffffffffffffffffffffffffffffffffff1673ffffffffffffffffffffffffffffffffffffffff16815260200190815260200160002054905060008167ffffffffffffffff811115620003df57620003de62000cb8565b5b6040519080825280602002602001820160405280156200040e5781602001602082028036833780820191505090505b50905060005b82811015620004f457600460008673ffffffffffffffffffffffffffffffffffffffff1673ffffffffffffffffffffffffffffffffffffffff168152602001908152602001600020600082815260200190815260200160002060009054906101000a900473ffffffffffffffffffffffffffffffffffffffff16828281518110620004a457620004a362001182565b5b602002602001019073ffffffffffffffffffffffffffffffffffffffff16908173ffffffffffffffffffffffffffffffffffffffff16815250508080620004eb90620011e0565b91505062000414565b508092505050919050565b60026020528060005260406000206000915054906101000a900473ffffffffffffffffffffffffffffffffffffffff1681565b6003818051602081018201805184825260208301602085012081835280955050505050506000915054906101000a900473ffffffffffffffffffffffffffffffffffffffff1681565b60003390508073ffffffffffffffffffffffffffffffffffffffff16600260008373ffffffffffffffffffffffffffffffffffffffff1673ffffffffffffffffffffffffffffffffffffffff16815260200190815260200160002060009054906101000a900473ffffffffffffffffffffffffffffffffffffffff1673ffffffffffffffffffffffffffffffffffffffff166338cc48316040518163ffffffff1660e01b815260040160206040518083038186803b1580156200063d57600080fd5b505afa15801562000652573d6000803e3d6000fd5b505050506040513d601f19601f8201168201806040525081019062000678919062001245565b73ffffffffffffffffffffffffffffffffffffffff1614156200094f57600260008273ffffffffffffffffffffffffffffffffffffffff1673ffffffffffffffffffffffffffffffffffffffff16815260200190815260200160002060009054906101000a900473ffffffffffffffffffffffffffffffffffffffff1673ffffffffffffffffffffffffffffffffffffffff1663c47f0027836040518263ffffffff1660e01b81526004016200072f919062001103565b600060405180830381600087803b1580156200074a57600080fd5b505af11580156200075f573d6000803e3d6000fd5b50505050600260008273ffffffffffffffffffffffffffffffffffffffff1673ffffffffffffffffffffffffffffffffffffffff16815260200190815260200160002060009054906101000a900473ffffffffffffffffffffffffffffffffffffffff16600383604051620007d5919062001169565b908152602001604051809103902060006101000a81548173ffffffffffffffffffffffffffffffffffffffff021916908373ffffffffffffffffffffffffffffffffffffffff1602179055506003600260008373ffffffffffffffffffffffffffffffffffffffff1673ffffffffffffffffffffffffffffffffffffffff16815260200190815260200160002060009054906101000a900473ffffffffffffffffffffffffffffffffffffffff1673ffffffffffffffffffffffffffffffffffffffff166317d7de7c6040518163ffffffff1660e01b815260040160006040518083038186803b158015620008c957600080fd5b505afa158015620008de573d6000803e3d6000fd5b505050506040513d6000823e3d601f19601f82011682018060405250810190620009099190620012f5565b60405162000918919062001169565b908152602001604051809103902060006101000a81549073ffffffffffffffffffffffffffffffffffffffff021916905562000a6d565b60008282604051620009619062000b66565b6200096e92919062001357565b604051809103906000f0801580156200098b573d6000803e3d6000fd5b50905080600260008473ffffffffffffffffffffffffffffffffffffffff1673ffffffffffffffffffffffffffffffffffffffff16815260200190815260200160002060006101000a81548173ffffffffffffffffffffffffffffffffffffffff021916908373ffffffffffffffffffffffffffffffffffffffff1602179055508060038460405162000a1f919062001169565b908152602001604051809103902060006101000a81548173ffffffffffffffffffffffffffffffffffffffff021916908373ffffffffffffffffffffffffffffffffffffffff160217905550505b5050565b6060600260008373ffffffffffffffffffffffffffffffffffffffff1673ffffffffffffffffffffffffffffffffffffffff16815260200190815260200160002060009054906101000a900473ffffffffffffffffffffffffffffffffffffffff1673ffffffffffffffffffffffffffffffffffffffff166317d7de7c6040518163ffffffff1660e01b815260040160006040518083038186803b15801562000b1957600080fd5b505afa15801562000b2e573d6000803e3d6000fd5b505050506040513d6000823e3d601f19601f8201168201806040525081019062000b599190620012f5565b9050919050565b60005481565b610b12806200138c83390190565b6000604051905090565b600080fd5b600080fd5b6000819050919050565b62000b9d8162000b88565b811462000ba957600080fd5b50565b60008135905062000bbd8162000b92565b92915050565b60006020828403121562000bdc5762000bdb62000b7e565b5b600062000bec8482850162000bac565b91505092915050565b600073ffffffffffffffffffffffffffffffffffffffff82169050919050565b6000819050919050565b600062000c4062000c3a62000c348462000bf5565b62000c15565b62000bf5565b9050919050565b600062000c548262000c1f565b9050919050565b600062000c688262000c47565b9050919050565b62000c7a8162000c5b565b82525050565b600060208201905062000c97600083018462000c6f565b92915050565b600080fd5b600080fd5b6000601f19601f8301169050919050565b7f4e487b7100000000000000000000000000000000000000000000000000000000600052604160045260246000fd5b62000cf28262000ca7565b810181811067ffffffffffffffff8211171562000d145762000d1362000cb8565b5b80604052505050565b600062000d2962000b74565b905062000d37828262000ce7565b919050565b600067ffffffffffffffff82111562000d5a5762000d5962000cb8565b5b62000d658262000ca7565b9050602081019050919050565b82818337600083830152505050565b600062000d9862000d928462000d3c565b62000d1d565b90508281526020810184848401111562000db75762000db662000ca2565b5b62000dc484828562000d72565b509392505050565b600082601f83011262000de45762000de362000c9d565b5b813562000df684826020860162000d81565b91505092915050565b60006020828403121562000e185762000e1762000b7e565b5b600082013567ffffffffffffffff81111562000e395762000e3862000b83565b5b62000e478482850162000dcc565b91505092915050565b600062000e5d8262000c47565b9050919050565b62000e6f8162000e50565b82525050565b600060208201905062000e8c600083018462000e64565b92915050565b600062000e9f8262000bf5565b9050919050565b62000eb18162000e92565b811462000ebd57600080fd5b50565b60008135905062000ed18162000ea6565b92915050565b60006020828403121562000ef05762000eef62000b7e565b5b600062000f008482850162000ec0565b91505092915050565b62000f148162000b88565b82525050565b600060208201905062000f31600083018462000f09565b92915050565b6000806040838503121562000f515762000f5062000b7e565b5b600062000f618582860162000ec0565b925050602062000f748582860162000bac565b9150509250929050565b600081519050919050565b600082825260208201905092915050565b6000819050602082019050919050565b62000fb58162000c5b565b82525050565b600062000fc9838362000faa565b60208301905092915050565b6000602082019050919050565b600062000fef8262000f7e565b62000ffb818562000f89565b9350620010088362000f9a565b8060005b838110156200103f57815162001023888262000fbb565b9750620010308362000fd5565b9250506001810190506200100c565b5085935050505092915050565b6000602082019050818103600083015262001068818462000fe2565b905092915050565b600081519050919050565b600082825260208201905092915050565b60005b83811015620010ac5780820151818401526020810190506200108f565b83811115620010bc576000848401525b50505050565b6000620010cf8262001070565b620010db81856200107b565b9350620010ed8185602086016200108c565b620010f88162000ca7565b840191505092915050565b600060208201905081810360008301526200111f8184620010c2565b905092915050565b600081905092915050565b60006200113f8262001070565b6200114b818562001127565b93506200115d8185602086016200108c565b80840191505092915050565b600062001177828462001132565b915081905092915050565b7f4e487b7100000000000000000000000000000000000000000000000000000000600052603260045260246000fd5b7f4e487b7100000000000000000000000000000000000000000000000000000000600052601160045260246000fd5b6000620011ed8262000b88565b91507fffffffffffffffffffffffffffffffffffffffffffffffffffffffffffffffff821415620012235762001222620011b1565b5b600182019050919050565b6000815190506200123f8162000ea6565b92915050565b6000602082840312156200125e576200125d62000b7e565b5b60006200126e848285016200122e565b91505092915050565b60006200128e620012888462000d3c565b62000d1d565b905082815260208101848484011115620012ad57620012ac62000ca2565b5b620012ba8482856200108c565b509392505050565b600082601f830112620012da57620012d962000c9d565b5b8151620012ec84826020860162001277565b91505092915050565b6000602082840312156200130e576200130d62000b7e565b5b600082015167ffffffffffffffff8111156200132f576200132e62000b83565b5b6200133d84828501620012c2565b91505092915050565b620013518162000e92565b82525050565b60006040820190508181036000830152620013738185620010c2565b905062001384602083018462001346565b939250505056fe60a06040523480156200001157600080fd5b5060405162000b1238038062000b1283398181016040528101906200003791906200033e565b81600090805190602001906200004f9291906200008c565b508073ffffffffffffffffffffffffffffffffffffffff1660808173ffffffffffffffffffffffffffffffffffffffff1681525050505062000409565b8280546200009a90620003d3565b90600052602060002090601f016020900481019282620000be57600085556200010a565b82601f10620000d957805160ff19168380011785556200010a565b828001600101855582156200010a579182015b8281111562000109578251825591602001919060010190620000ec565b5b5090506200011991906200011d565b5090565b5b80821115620001385760008160009055506001016200011e565b5090565b6000604051905090565b600080fd5b600080fd5b600080fd5b600080fd5b6000601f19601f8301169050919050565b7f4e487b7100000000000000000000000000000000000000000000000000000000600052604160045260246000fd5b620001a5826200015a565b810181811067ffffffffffffffff82111715620001c757620001c66200016b565b5b80604052505050565b6000620001dc6200013c565b9050620001ea82826200019a565b919050565b600067ffffffffffffffff8211156200020d576200020c6200016b565b5b62000218826200015a565b9050602081019050919050565b60005b838110156200024557808201518184015260208101905062000228565b8381111562000255576000848401525b50505050565b6000620002726200026c84620001ef565b620001d0565b90508281526020810184848401111562000291576200029062000155565b5b6200029e84828562000225565b509392505050565b600082601f830112620002be57620002bd62000150565b5b8151620002d08482602086016200025b565b91505092915050565b600073ffffffffffffffffffffffffffffffffffffffff82169050919050565b60006200030682620002d9565b9050919050565b6200031881620002f9565b81146200032457600080fd5b50565b60008151905062000338816200030d565b92915050565b6000806040838503121562000358576200035762000146565b5b600083015167ffffffffffffffff8111156200037957620003786200014b565b5b6200038785828601620002a6565b92505060206200039a8582860162000327565b9150509250929050565b7f4e487b7100000000000000000000000000000000000000000000000000000000600052602260045260246000fd5b60006002820490506001821680620003ec57607f821691505b60208210811415620004035762000402620003a4565b5b50919050565b6080516106df62000433600039600081816102140152818161023a01526102da01526106df6000f3fe608060405234801561001057600080fd5b50600436106100575760003560e01c806306fdde031461005c57806317d7de7c1461007a57806338cc483114610098578063c47f0027146100b6578063e4128fb3146100d2575b600080fd5b6100646100f0565b6040516100719190610438565b60405180910390f35b61008261017e565b60405161008f9190610438565b60405180910390f35b6100a0610210565b6040516100ad919061049b565b60405180910390f35b6100d060048036038101906100cb91906105ff565b610238565b005b6100da6102d8565b6040516100e7919061049b565b60405180910390f35b600080546100fd90610677565b80601f016020809104026020016040519081016040528092919081815260200182805461012990610677565b80156101765780601f1061014b57610100808354040283529160200191610176565b820191906000526020600020905b81548152906001019060200180831161015957829003601f168201915b505050505081565b60606000805461018d90610677565b80601f01602080910402602001604051908101604052809291908181526020018280546101b990610677565b80156102065780601f106101db57610100808354040283529160200191610206565b820191906000526020600020905b8154815290600101906020018083116101e957829003601f168201915b5050505050905090565b60007f0000000000000000000000000000000000000000000000000000000000000000905090565b7f000000000000000000000000000000000000000000000000000000000000000073ffffffffffffffffffffffffffffffffffffffff163373ffffffffffffffffffffffffffffffffffffffff1614156102be576040517f3d83866f00000000000000000000000000000000000000000000000000000000815260040160405180910390fd5b80600090805190602001906102d49291906102fc565b5050565b7f000000000000000000000000000000000000000000000000000000000000000081565b82805461030890610677565b90600052602060002090601f01602090048101928261032a5760008555610371565b82601f1061034357805160ff1916838001178555610371565b82800160010185558215610371579182015b82811115610370578251825591602001919060010190610355565b5b50905061037e9190610382565b5090565b5b8082111561039b576000816000905550600101610383565b5090565b600081519050919050565b600082825260208201905092915050565b60005b838110156103d95780820151818401526020810190506103be565b838111156103e8576000848401525b50505050565b6000601f19601f8301169050919050565b600061040a8261039f565b61041481856103aa565b93506104248185602086016103bb565b61042d816103ee565b840191505092915050565b6000602082019050818103600083015261045281846103ff565b905092915050565b600073ffffffffffffffffffffffffffffffffffffffff82169050919050565b60006104858261045a565b9050919050565b6104958161047a565b82525050565b60006020820190506104b0600083018461048c565b92915050565b6000604051905090565b600080fd5b600080fd5b600080fd5b600080fd5b7f4e487b7100000000000000000000000000000000000000000000000000000000600052604160045260246000fd5b61050c826103ee565b810181811067ffffffffffffffff8211171561052b5761052a6104d4565b5b80604052505050565b600061053e6104b6565b905061054a8282610503565b919050565b600067ffffffffffffffff82111561056a576105696104d4565b5b610573826103ee565b9050602081019050919050565b82818337600083830152505050565b60006105a261059d8461054f565b610534565b9050828152602081018484840111156105be576105bd6104cf565b5b6105c9848285610580565b509392505050565b600082601f8301126105e6576105e56104ca565b5b81356105f684826020860161058f565b91505092915050565b600060208284031215610615576106146104c0565b5b600082013567ffffffffffffffff811115610633576106326104c5565b5b61063f848285016105d1565b91505092915050565b7f4e487b7100000000000000000000000000000000000000000000000000000000600052602260045260246000fd5b6000600282049050600182168061068f57607f821691505b602082108114156106a3576106a2610648565b5b5091905056fea2646970667358221220f3781d96f435565ffea6e7d36fa55322923bdb307693fbf0c348a11df5fcb46b64736f6c63430008090033a264697066735822122008cb73f447af68c987e91d762e33d6289bb112e4a92e08f9f10a285e50ecce0b64736f6c63430008090033",
  "linkReferences": {},
  "deployedLinkReferences": {}
}