{
  "_format": "hh-sol-artifact-1",
  "contractName": "Post",
  "sourceName": "contracts/Post.sol",
  "abi": [
    {
      "inputs": [
        {
          "internalType": "string",
          "name": "_title",
          "type": "string"
        },
        {
          "internalType": "string",
          "name": "_image_cid",
          "type": "string"
        },
        {
          "internalType": "address",
          "name": "_author",
          "type": "address"
        }
      ],
      "stateMutability": "nonpayable",
      "type": "constructor"
    },
    {
      "inputs": [],
      "name": "author",
      "outputs": [
        {
          "internalType": "address",
          "name": "",
          "type": "address"
        }
      ],
      "stateMutability": "view",
      "type": "function"
    },
    {
      "inputs": [],
      "name": "getImageCid",
      "outputs": [
        {
          "internalType": "string",
          "name": "",
          "type": "string"
        }
      ],
      "stateMutability": "view",
      "type": "function"
    },
    {
      "inputs": [],
      "name": "getTitle",
      "outputs": [
        {
          "internalType": "string",
          "name": "",
          "type": "string"
        }
      ],
      "stateMutability": "view",
      "type": "function"
    },
    {
      "inputs": [],
      "name": "image_cid",
      "outputs": [
        {
          "internalType": "string",
          "name": "",
          "type": "string"
        }
      ],
      "stateMutability": "view",
      "type": "function"
    },
    {
      "inputs": [],
      "name": "title",
      "outputs": [
        {
          "internalType": "string",
          "name": "",
          "type": "string"
        }
      ],
      "stateMutability": "view",
      "type": "function"
    }
  ],
  "bytecode": "0x60a06040523480156200001157600080fd5b506040516200097738038062000977833981810160405281019062000037919062000358565b82600090805190602001906200004f929190620000a6565b50816001908051906020019062000068929190620000a6565b508073ffffffffffffffffffffffffffffffffffffffff1660808173ffffffffffffffffffffffffffffffffffffffff168152505050505062000457565b828054620000b49062000421565b90600052602060002090601f016020900481019282620000d8576000855562000124565b82601f10620000f357805160ff191683800117855562000124565b8280016001018555821562000124579182015b828111156200012357825182559160200191906001019062000106565b5b50905062000133919062000137565b5090565b5b808211156200015257600081600090555060010162000138565b5090565b6000604051905090565b600080fd5b600080fd5b600080fd5b600080fd5b6000601f19601f8301169050919050565b7f4e487b7100000000000000000000000000000000000000000000000000000000600052604160045260246000fd5b620001bf8262000174565b810181811067ffffffffffffffff82111715620001e157620001e062000185565b5b80604052505050565b6000620001f662000156565b9050620002048282620001b4565b919050565b600067ffffffffffffffff82111562000227576200022662000185565b5b620002328262000174565b9050602081019050919050565b60005b838110156200025f57808201518184015260208101905062000242565b838111156200026f576000848401525b50505050565b60006200028c620002868462000209565b620001ea565b905082815260208101848484011115620002ab57620002aa6200016f565b5b620002b88482856200023f565b509392505050565b600082601f830112620002d857620002d76200016a565b5b8151620002ea84826020860162000275565b91505092915050565b600073ffffffffffffffffffffffffffffffffffffffff82169050919050565b60006200032082620002f3565b9050919050565b620003328162000313565b81146200033e57600080fd5b50565b600081519050620003528162000327565b92915050565b60008060006060848603121562000374576200037362000160565b5b600084015167ffffffffffffffff81111562000395576200039462000165565b5b620003a386828701620002c0565b935050602084015167ffffffffffffffff811115620003c757620003c662000165565b5b620003d586828701620002c0565b9250506040620003e88682870162000341565b9150509250925092565b7f4e487b7100000000000000000000000000000000000000000000000000000000600052602260045260246000fd5b600060028204905060018216806200043a57607f821691505b60208210811415620004515762000450620003f2565b5b50919050565b60805161050462000473600039600061021401526105046000f3fe608060405234801561001057600080fd5b50600436106100575760003560e01c80634a79d50c1461005c578063810fbcb71461007a578063a6c3e6b914610098578063dc80ef62146100b6578063ff3c1a8f146100d4575b600080fd5b6100646100f2565b60405161007191906103ef565b60405180910390f35b610082610180565b60405161008f91906103ef565b60405180910390f35b6100a0610212565b6040516100ad9190610452565b60405180910390f35b6100be610236565b6040516100cb91906103ef565b60405180910390f35b6100dc6102c4565b6040516100e991906103ef565b60405180910390f35b600080546100ff9061049c565b80601f016020809104026020016040519081016040528092919081815260200182805461012b9061049c565b80156101785780601f1061014d57610100808354040283529160200191610178565b820191906000526020600020905b81548152906001019060200180831161015b57829003601f168201915b505050505081565b60606001805461018f9061049c565b80601f01602080910402602001604051908101604052809291908181526020018280546101bb9061049c565b80156102085780601f106101dd57610100808354040283529160200191610208565b820191906000526020600020905b8154815290600101906020018083116101eb57829003601f168201915b5050505050905090565b7f000000000000000000000000000000000000000000000000000000000000000081565b600180546102439061049c565b80601f016020809104026020016040519081016040528092919081815260200182805461026f9061049c565b80156102bc5780601f10610291576101008083540402835291602001916102bc565b820191906000526020600020905b81548152906001019060200180831161029f57829003601f168201915b505050505081565b6060600080546102d39061049c565b80601f01602080910402602001604051908101604052809291908181526020018280546102ff9061049c565b801561034c5780601f106103215761010080835404028352916020019161034c565b820191906000526020600020905b81548152906001019060200180831161032f57829003601f168201915b5050505050905090565b600081519050919050565b600082825260208201905092915050565b60005b83811015610390578082015181840152602081019050610375565b8381111561039f576000848401525b50505050565b6000601f19601f8301169050919050565b60006103c182610356565b6103cb8185610361565b93506103db818560208601610372565b6103e4816103a5565b840191505092915050565b6000602082019050818103600083015261040981846103b6565b905092915050565b600073ffffffffffffffffffffffffffffffffffffffff82169050919050565b600061043c82610411565b9050919050565b61044c81610431565b82525050565b60006020820190506104676000830184610443565b92915050565b7f4e487b7100000000000000000000000000000000000000000000000000000000600052602260045260246000fd5b600060028204905060018216806104b457607f821691505b602082108114156104c8576104c761046d565b5b5091905056fea264697066735822122010a451d062470f8c5c40bb1a062c6707a41ec66ac46aebd43f106fafad9eec4764736f6c63430008090033",
  "linkReferences": {},
  "deployedLinkReferences": {}
}